{
  "_format": "hh-sol-artifact-1",
  "contractName": "MedicalRecords",
  "sourceName": "contracts/MedicalRecords.sol",
  "abi": [
    {
      "anonymous": false,
      "inputs": [
        {
          "indexed": false,
          "internalType": "string",
          "name": "patientId",
          "type": "string"
        },
        {
          "indexed": false,
          "internalType": "address",
          "name": "doctor",
          "type": "address"
        },
        {
          "indexed": false,
          "internalType": "uint256",
          "name": "timestamp",
          "type": "uint256"
        }
      ],
      "name": "RecordAdded",
      "type": "event"
    },
    {
      "inputs": [
        {
          "internalType": "string",
          "name": "_patientId",
          "type": "string"
        },
        {
          "internalType": "string",
          "name": "_dataHash",
          "type": "string"
        }
      ],
      "name": "addRecord",
      "outputs": [],
      "stateMutability": "nonpayable",
      "type": "function"
    },
    {
      "inputs": [
        {
          "internalType": "string",
          "name": "_patientId",
          "type": "string"
        }
      ],
      "name": "getRecords",
      "outputs": [
        {
          "components": [
            {
              "internalType": "string",
              "name": "patientId",
              "type": "string"
            },
            {
              "internalType": "string",
              "name": "dataHash",
              "type": "string"
            },
            {
              "internalType": "address",
              "name": "doctor",
              "type": "address"
            },
            {
              "internalType": "uint256",
              "name": "timestamp",
              "type": "uint256"
            }
          ],
          "internalType": "struct MedicalRecords.Record[]",
          "name": "",
          "type": "tuple[]"
        }
      ],
      "stateMutability": "view",
      "type": "function"
    }
  ],
  "bytecode": "0x6080604052348015600f57600080fd5b50610c138061001f6000396000f3fe608060405234801561001057600080fd5b50600436106100365760003560e01c806386e80b711461003b578063c95962481461006b575b600080fd5b6100556004803603810190610050919061051e565b610087565b604051610062919061076c565b60405180910390f35b6100856004803603810190610080919061078e565b610288565b005b60606000826040516100999190610842565b9081526020016040518091039020805480602002602001604051908101604052809291908181526020016000905b8282101561027d57838290600052602060002090600402016040518060800160405290816000820180546100fa90610888565b80601f016020809104026020016040519081016040528092919081815260200182805461012690610888565b80156101735780601f1061014857610100808354040283529160200191610173565b820191906000526020600020905b81548152906001019060200180831161015657829003601f168201915b5050505050815260200160018201805461018c90610888565b80601f01602080910402602001604051908101604052809291908181526020018280546101b890610888565b80156102055780601f106101da57610100808354040283529160200191610205565b820191906000526020600020905b8154815290600101906020018083116101e857829003601f168201915b505050505081526020016002820160009054906101000a900473ffffffffffffffffffffffffffffffffffffffff1673ffffffffffffffffffffffffffffffffffffffff1673ffffffffffffffffffffffffffffffffffffffff168152602001600382015481525050815260200190600101906100c7565b505050509050919050565b6000826040516102989190610842565b908152602001604051809103902060405180608001604052808481526020018381526020013373ffffffffffffffffffffffffffffffffffffffff168152602001428152509080600181540180825580915050600190039060005260206000209060040201600090919091909150600082015181600001908161031b9190610a65565b5060208201518160010190816103319190610a65565b5060408201518160020160006101000a81548173ffffffffffffffffffffffffffffffffffffffff021916908373ffffffffffffffffffffffffffffffffffffffff1602179055506060820151816003015550507f6c5d3cf7b5cb6ad20a6a0bd461b2ccf34c51b6014e9cb7f8feec03d96dcf3c448233426040516103b893929190610b9f565b60405180910390a15050565b6000604051905090565b600080fd5b600080fd5b600080fd5b600080fd5b6000601f19601f8301169050919050565b7f4e487b7100000000000000000000000000000000000000000000000000000000600052604160045260246000fd5b61042b826103e2565b810181811067ffffffffffffffff8211171561044a576104496103f3565b5b80604052505050565b600061045d6103c4565b90506104698282610422565b919050565b600067ffffffffffffffff821115610489576104886103f3565b5b610492826103e2565b9050602081019050919050565b82818337600083830152505050565b60006104c16104bc8461046e565b610453565b9050828152602081018484840111156104dd576104dc6103dd565b5b6104e884828561049f565b509392505050565b600082601f830112610505576105046103d8565b5b81356105158482602086016104ae565b91505092915050565b600060208284031215610534576105336103ce565b5b600082013567ffffffffffffffff811115610552576105516103d3565b5b61055e848285016104f0565b91505092915050565b600081519050919050565b600082825260208201905092915050565b6000819050602082019050919050565b600081519050919050565b600082825260208201905092915050565b60005b838110156105cd5780820151818401526020810190506105b2565b60008484015250505050565b60006105e482610593565b6105ee818561059e565b93506105fe8185602086016105af565b610607816103e2565b840191505092915050565b600073ffffffffffffffffffffffffffffffffffffffff82169050919050565b600061063d82610612565b9050919050565b61064d81610632565b82525050565b6000819050919050565b61066681610653565b82525050565b6000608083016000830151848203600086015261068982826105d9565b915050602083015184820360208601526106a382826105d9565b91505060408301516106b86040860182610644565b5060608301516106cb606086018261065d565b508091505092915050565b60006106e2838361066c565b905092915050565b6000602082019050919050565b600061070282610567565b61070c8185610572565b93508360208202850161071e85610583565b8060005b8581101561075a578484038952815161073b85826106d6565b9450610746836106ea565b925060208a01995050600181019050610722565b50829750879550505050505092915050565b6000602082019050818103600083015261078681846106f7565b905092915050565b600080604083850312156107a5576107a46103ce565b5b600083013567ffffffffffffffff8111156107c3576107c26103d3565b5b6107cf858286016104f0565b925050602083013567ffffffffffffffff8111156107f0576107ef6103d3565b5b6107fc858286016104f0565b9150509250929050565b600081905092915050565b600061081c82610593565b6108268185610806565b93506108368185602086016105af565b80840191505092915050565b600061084e8284610811565b915081905092915050565b7f4e487b7100000000000000000000000000000000000000000000000000000000600052602260045260246000fd5b600060028204905060018216806108a057607f821691505b6020821081036108b3576108b2610859565b5b50919050565b60008190508160005260206000209050919050565b60006020601f8301049050919050565b600082821b905092915050565b60006008830261091b7fffffffffffffffffffffffffffffffffffffffffffffffffffffffffffffffff826108de565b61092586836108de565b95508019841693508086168417925050509392505050565b6000819050919050565b600061096261095d61095884610653565b61093d565b610653565b9050919050565b6000819050919050565b61097c83610947565b61099061098882610969565b8484546108eb565b825550505050565b600090565b6109a5610998565b6109b0818484610973565b505050565b5b818110156109d4576109c960008261099d565b6001810190506109b6565b5050565b601f821115610a19576109ea816108b9565b6109f3846108ce565b81016020851015610a02578190505b610a16610a0e856108ce565b8301826109b5565b50505b505050565b600082821c905092915050565b6000610a3c60001984600802610a1e565b1980831691505092915050565b6000610a558383610a2b565b9150826002028217905092915050565b610a6e82610593565b67ffffffffffffffff811115610a8757610a866103f3565b5b610a918254610888565b610a9c8282856109d8565b600060209050601f831160018114610acf5760008415610abd578287015190505b610ac78582610a49565b865550610b2f565b601f198416610add866108b9565b60005b82811015610b0557848901518255600182019150602085019450602081019050610ae0565b86831015610b225784890151610b1e601f891682610a2b565b8355505b6001600288020188555050505b505050505050565b600082825260208201905092915050565b6000610b5382610593565b610b5d8185610b37565b9350610b6d8185602086016105af565b610b76816103e2565b840191505092915050565b610b8a81610632565b82525050565b610b9981610653565b82525050565b60006060820190508181036000830152610bb98186610b48565b9050610bc86020830185610b81565b610bd56040830184610b90565b94935050505056fea2646970667358221220a1252c48e1ff1d2eced0a2e7b13d40b1f192f325cd70c275859ac60c763f103e64736f6c634300081c0033",
  "linkReferences": {},
  "deployedLinkReferences": {}
}